:020000040800F2
:100000000000082491120008990F00089F0F0008B3
:10001000A50F0008AB0F0008B10F0008000000009A
:10002000000000000000000000000000B70F000802
:10003000C50F000800000000D30F0008E10F000802
:10004000E1120008E1120008E1120008E1120008C4
:10005000E1120008E1120008E1120008E1120008B4
:10006000E1120008E1120008E1120008E1120008A4
:10007000E1120008E1120008E1120008E112000894
:10008000E1120008E1120008E1120008E112000884
:10009000E1120008E1120008E1120008E112000874
:1000A000E1120008E1120008E1120008E112000864
:1000B000E1120008E1120008E1120008E112000854
:1000C000E1120008E1120008E1120008E112000844
:1000D000E1120008E1120008E1120008E112000834
:1000E000E1120008E112000800000000E11200081F
:1000F000E1120008E1120008E1120008E112000814
:10010000E1120008E1120008E1120008E112000803
:10011000E1120008E1120008E1120008E1120008F3
:10012000E1120008E1120008E1120008E1120008E3
:10013000E1120008E1120008E1120008E1120008D3
:1001400000000000000000000000000000000000AF
:10015000E1120008E1120008E1120008E1120008B3
:10016000E1120008E1120008E1120008E1120008A3
:10017000E1120008E1120008E1120008E112000893
:10018000E1120008E1120008E1120008E112000883
:10019000E1120008E1120008E1120008E112000873
:1001A000E1120008E1120008E1120008E112000863
:1001B000E1120008E1120008E1120008E112000853
:1001C000E1120008E1120008E1120008E112000843
:1001D000E1120008E1120008E1120008E112000833
:1001E000E1120008E1120008E1120008E112000823
:1001F000E1120008E1120008E1120008E112000813
:10020000E1120008E1120008E1120008E112000802
:10021000E1120008E1120008E1120008E1120008F2
:10022000E1120008E1120008E112000800000000DD
:10023000E1120008E112000800000000E1120008CD
:10024000E1120008E1120008E1120008E1120008C2
:10025000E1120008E1120008E1120008E1120008B2
:10026000E1120008E1120008E1120008E1120008A2
:10027000E1120008E1120008E1120008000000008D
:10028000E1120008E1120008E1120008000000007D
:0802900000000000E11200086B
:1002A00010B5054C237833B9044B13B10448AFF3B0
:1002B00000800123237010BD940000240000000082
:1002C0004851010808B5034B1BB103490348AFF37C
:1002D000008008BD0000000098000024485101087B
:1002E00010F8012B11F8013B012A28BF9A42F7D0E0
:1002F000D01A7047034613F8012B002AFBD1181AB5
:1003000001387047000000000000000000000000FD
:1003100001F0FF01102A2BDB10F0070F08D010F8B6
:10032000013B013A8B422DD010F0070F42B3F6D1BA
:10033000F0B441EA012141EA014122F007047FF0D3
:1003400000070023F0E80256083C85EA010586EA2A
:10035000010685FA47F5A3FA87F586FA47F6A5FA66
:1003600087F68EB9EED1F0BC01F0FF0102F0070272
:1003700032B110F8013B013A83EA010313B1F8D11D
:100380000020704701387047002D06BF35460338FE
:10039000073815F0010F07D1013015F4807F02BF37
:1003A000013015F4C03F0130F0BC0138704700BF88
:1003B00080B584B000AF00F0DDFC3B4B5B6903F41B
:1003C0000033002B1BD1BFF34F8F00BFBFF36F8FE4
:1003D00000BF354B0022C3F85022BFF34F8F00BF40
:1003E000BFF36F8F00BF304B5B692F4A43F400337C
:1003F0005361BFF34F8F00BFBFF36F8F00E000BFAB
:10040000294B5B6903F48033002B38D1264B002243
:10041000C3F88420BFF34F8F00BF234BD3F8803045
:10042000FB60FB685B0BC3F30E03BB60FB68DB0880
:10043000C3F309037B60BB685A0143F6E0731340C2
:100440007A68920718491343C1F860327B685A1ED4
:100450007A60002BEFD1BB685A1EBA60002BE5D141
:10046000BFF34F8F00BF104B5B690F4A43F48033DB
:100470005361BFF34F8F00BFBFF36F8F00E000BF2A
:1004800001F090F800F014F800F0FAF800F094F899
:1004900007F0CCFC09F06CF807F014FE034807F0F5
:1004A0005BFF11F0ADF8F7E700ED00E0200100245C
:1004B00080B59CB000AF07F124034C220021184600
:1004C00013F0C8FD3B1D20220021184613F0C2FD89
:1004D000022003F0A3FF00233B60344BDB6A334A66
:1004E00023F00103D362314BDB6A03F001033B606D
:1004F0002F4B9B692E4A43F4404393612C4B9B69DD
:1005000003F440433B603B6800BF294B9B6903F405
:100510000053B3F5005FF8D1264B9B6A23F0030329
:10052000244A43F00203936201237B624FF4803339
:10053000BB620223BB640223FB6406233B65C0232A
:100540007B650223BB650423FB6502233B6608230E
:100550007B660023BB660023FB6607F12403184675
:1005600003F096FF0346002B01D000F055FC3F231B
:100570007B600323BB600023FB6008233B614023B7
:100580007B614023BB614FF48063FB6140233B628E
:100590003B1D0221184604F0D5FB0346002B01D079
:1005A00000F03AFC00BF7037BD4680BD0004005823
:1005B000004802580044025880B588B000AF3B1D87
:1005C00000221A605A609A60DA601A615A619A6170
:1005D000274B284A1A60264B00229A60244B00229F
:1005E000DA60234B04221A61214B00221A75204B3A
:1005F00000225A751E4B01229A611D4B00221A7768
:100600001B4B00225A621A4B00229A62184B00229E
:10061000DA62174B00221A63154B00225A63144BFF
:10062000002283F83820124801F010FA0346002B0C
:1006300001D000F0F1FB104B7B600623BB60002370
:10064000FB600E4B3B6104237B610023BB610023F5
:100650007B773B1D1946064801F09AFB0346002BA9
:1006600001D000F0D9FB00BF2037BD4680BD00BFE0
:10067000B000002400600258020030040000FF4770
:1006800080B590B000AF07F12C0300221A605A60C9
:100690009A60DA601A61BD4BD3F8E030BB4A43F48C
:1006A0008073C2F8E030B94BD3F8E03003F48073C4
:1006B000BB62BB6AB54BD3F8E030B44A43F00203E7
:1006C000C2F8E030B14BD3F8E03003F002037B62B4
:1006D0007B6AAE4BD3F8E030AC4A43F48063C2F897
:1006E000E030AA4BD3F8E03003F480633B623B6A0E
:1006F000A64BD3F8E030A54A43F04003C2F8E030FF
:10070000A24BD3F8E03003F04003FB61FB699F4B41
:10071000D3F8E0309D4A43F00403C2F8E0309B4B2D
:10072000D3F8E03003F00403BB61BB69974BD3F807
:10073000E030964A43F01003C2F8E030934BD3F810
:10074000E03003F010037B617B69904BD3F8E0301D
:100750008E4A43F40073C2F8E0308C4BD3F8E0309B
:1007600003F400733B613B69884BD3F8E030874A60
:1007700043F00803C2F8E030844BD3F8E03003F0D4
:100780000803FB60FB68814BD3F8E0307F4A43F0FD
:100790008003C2F8E0307D4BD3F8E03003F08003F3
:1007A000BB60BB68794BD3F8E030784A43F0010373
:1007B000C2F8E030754BD3F8E03003F001037B6002
:1007C0007B68724BD3F8E030704A43F02003C2F8E4
:1007D000E0306E4BD3F8E03003F020033B603B6821
:1007E00000224FF400516A4803F0FEFD002204216C
:1007F000684803F0F9FD00224FF48051664803F089
:10080000F3FDF023FB6202233B6300237B630023A1
:10081000BB630A23FB6307F12C0319465C4803F012
:1008200033FC42F22003FB6202233B6300237B6321
:100830000023BB630923FB6307F12C0319465648C9
:1008400003F022FCFC23FB6202233B6300237B6357
:100850000023BB630E23FB6307F12C0319464F48AB
:1008600003F012FC4FF48063FB6202233B6300231E
:100870007B630023BB630A23FB6307F12C03194648
:10088000474803F001FC4FF4FE53FB6202233B6335
:1008900000237B630323BB630C23FB6307F12C035F
:1008A0001946404803F0F0FB4DF20323FB6202239C
:1008B0003B6300237B630023BB630E23FB6307F1D1
:1008C0002C031946324803F0DFFB4FF68373FB62BB
:1008D00002233B6300237B630323BB630C23FB6383
:1008E00007F12C031946304803F0CEFB4023FB628E
:1008F00002233B6300237B630023BB630A23FB6368
:1009000007F12C031946244803F0BEFB1023FB62B9
:1009100002233B6300237B630023BB630723FB634A
:1009200007F12C0319461C4803F0AEFB4FF6FB738E
:10093000FB6202233B6300237B630023BB630E2324
:10094000FB6307F12C031946124803F09DFB0823B3
:10095000FB6202233B6300237B630023BB6305230D
:10096000FB6307F12C031946104803F08DFB0423A9
:10097000FB6202233B6300237B630023BB630523ED
:10098000FB6307F12C03194612E000BF0044025834
:10099000002002580024025800040258002802587F
:1009A000001802580008025800100258000C0258A3
:1009B000BC4803F069FB4FF40043FB6202233B6336
:1009C00000237B630023BB630323FB6307F12C033A
:1009D0001946B54803F058FB4FF4C043FB620223AD
:1009E0003B6300237B630023BB630923FB6307F1A5
:1009F0002C031946AC4803F047FB8023FB6200231D
:100A00003B6300237B6307F12C031946A74803F0DF
:100A10003BFB3023FB6202233B6300237B63002309
:100A2000BB630A23FB6307F12C031946A04803F0BC
:100A30002BFB4FF44073FB6202233B6300237B6379
:100A40000323BB630C23FB6307F12C03194699486E
:100A500003F01AFB48F23313FB6202233B630023CB
:100A60007B630323BB630C23FB6307F12C03194651
:100A7000914803F009FB0423FB6202233B6300233C
:100A80007B630323BB630C23FB6307F12C03194631
:100A9000864803F0F9FA4CF20373FB6202233B63CE
:100AA00000237B630323BB630C23FB6307F12C034D
:100AB00019467E4803F0E8FA4FF48063FB62002396
:100AC0003B6300237B6307F12C0319467B4803F04B
:100AD000DBFA4FF40053FB6200233B6300237B638C
:100AE00007F12C031946764803F0CEFA4FF48073D1
:100AF000FB6202233B6300237B630023BB63012370
:100B0000FB6307F12C0319466C4803F0BDFA4FF460
:100B1000C053FB6202233B6300237B630023BB6360
:100B20000A23FB6307F12C031946644803F0ACFA6F
:100B30004FF63F03FB6202233B6300237B630323E7
:100B4000BB630C23FB6307F12C0319465D4803F0DC
:100B50009BFA4FF40053FB6201233B6300237B634A
:100B60000023BB6307F12C0319464E4803F08CFAAF
:100B70000423FB624FF488133B6300237B6307F17C
:100B80002C0319464C4803F07FFA0123FB62002333
:100B90003B6300237B6307F12C0319464A4803F0AB
:100BA00073FA4FF49863FB6202233B6300237B6379
:100BB0000023BB630923FB6307F12C03194641485B
:100BC00003F062FA0123FB6203233B6300237B6390
:100BD00007F12C0319463A4803F056FA4FF4007314
:100BE000FB6202233B6300237B630023BB630A2376
:100BF000FB6307F12C031946324803F045FAE02362
:100C0000FB6202233B6300237B630323BB630C2350
:100C1000FB6307F12C031946234803F035FA4FF420
:100C20004063FB6202233B6300237B630023BB63BF
:100C30000723FB6307F12C0319461E4803F024FA2F
:100C40004FF40063FB624FF488133B6300237B6324
:100C500007F12C031946144803F016FA4023FB62EF
:100C600002233B6300237B630023BB630923FB63F5
:100C700007F12C031946114803F006FA4FF40073EC
:100C8000FB6202233B6300237B630023BB630E23D1
:100C9000FB6307F12C031946034803F0F5F94FF401
:100CA000006313E000200258001C0258000C025898
:100CB00000100258000402580018025800000258A0
:100CC000000802580014025800280258FB62022350
:100CD0003B6300237B630023BB630923FB6307F1B2
:100CE0002C031946204803F0CFF90423FB620123AB
:100CF0003B6300237B630023BB6307F12C0319468E
:100D00001A4803F0C1F94FF48053FB6201233B639F
:100D100000237B630023BB6307F12C0319461448AF
:100D200003F0B2F94FF40043FB6202233B6300235C
:100D30007B630023BB630523FB6307F12C03194688
:100D40000B4803F0A1F94FF080714FF0807000F074
:100D5000DBFC4FF000714FF0007000F0D5FC00BFDD
:100D60004037BD4680BD00BF000C02580024025829
:100D70000004025880B584B000AF3B4600221A60E0
:100D80005A609A60DA6001F043FD01233B70002352
:100D90007B7000237B601F233B7287237B720023C1
:100DA000BB720023FB7201233B7301237B7300237F
:100DB000BB730023FB733B46184601F061FD012322
:100DC0007B70134B7B6010233B7200237B720123EB
:100DD000BB720323FB7200237B733B46184601F072
:100DE0004FFD02237B700B4B7B6008233B7200237B
:100DF000BB7201237B730123FB733B46184601F052
:100E00003FFD042001F01CFD00BF1037BD4680BD32
:100E1000000002300000043080B400AF72B600BFA2
:100E2000FEE7000080B483B000AF0A4BD3F8F43083
:100E3000084A43F00203C2F8F430064BD3F8F4300A
:100E400003F002037B607B6800BF0C37BD465DF892
:100E5000047B70470044025880B5BCB000AF786096
:100E600007F1DC0300221A605A609A60DA601A61A6
:100E700007F11803C0220021184613F0EBF87B6835
:100E80001B68414A93427AD14FF400224FF000038D
:100E9000C7E9062302233B620C237B620423BB6267
:100EA0000223FB6202233B63C0237B632023BB63DB
:100EB0000023FB630023C7F8BC3007F11803184672
:100EC00004F0B6FA0346002B01D0FFF7A5FF2F4B25
:100ED000D3F8E0302D4A43F08073C2F8E0302B4B5A
:100EE000D3F8E03003F080737B617B69274BD3F844
:100EF000E030264A43F02003C2F8E030234BD3F819
:100F0000E03003F020033B613B69204BD3F8E03035
:100F10001E4A43F00403C2F8E0301C4BD3F8E03023
:100F200003F00403FB60FB684FF48073C7F8DC3008
:100F30000323C7F8E0300023C7F8E43007F1DC03EF
:100F40001946134803F0A0F80123C7F8DC30032347
:100F5000C7F8E0300023C7F8E43007F1DC03194696
:100F60000C4803F091F84FF080614FF0806000F082
:100F7000CBFB4FF000614FF0006000F0C5FB00BFFD
:100F8000F037BD4680BD00BF0060025800440258E3
:100F9000001402580008025880B400AFFEE780B485
:100FA00000AFFEE780B400AFFEE780B400AFFEE71D
:100FB00080B400AFFEE780B400AF00BFBD465DF86F
:100FC000047B704780B400AF00BFBD465DF8047B72
:100FD000704780B400AF00BFBD465DF8047B70472A
:100FE00080B500AF00F050FB00BF80BD80B400AF03
:100FF00001231846BD465DF8047B704780B483B07A
:1010000000AF78603960054B16221A604FF0FF334D
:1010100018460C37BD465DF8047B70473437002412
:1010200080B582B000AF78604FF0FF317868FFF78D
:10103000E5FFFEE780B586B000AFF860B9607A6082
:1010400000237B610AE0AFF300800146BB685A1CB5
:10105000BA60CAB21A707B6901337B617A697B68B6
:101060009A42F0DB7B6818461837BD4680BD80B5D4
:1010700086B000AFF860B9607A6000237B6109E058
:10108000BB685A1CBA601B781846AFF300807B69B6
:1010900001337B617A697B689A42F1DB7B68184691
:1010A0001837BD4680BD80B483B000AF78604FF084
:1010B000FF3318460C37BD465DF8047B704780B49B
:1010C00083B000AF786039603B684FF400525A60DB
:1010D000002318460C37BD465DF8047B704780B48A
:1010E00083B000AF7860012318460C37BD465DF829
:1010F000047B704780B485B000AFF860B9607A6057
:10110000002318461437BD465DF8047B7047000085
:1011100080B487B000AF7860144A154BD31A7B6156
:101120007B693B61134B1B68002B02D1114B124AA8
:101130001A60104B1A687B6813443A699A4205D2C8
:101140000E4B0C221A604FF0FF3309E0094B1B686D
:10115000FB60084B1A687B681344064A1360FB68FF
:1011600018461C37BD465DF8047B70470000082414
:101170000004000014010024483700243437002400
:1011800080B400AF374BD3F88830364A43F470034D
:10119000C2F88830344B1B6803F00F03062B07D8C6
:1011A000314B1B6823F00F032F4A43F007031360F2
:1011B0002E4B1B682D4A43F0010313602B4B00227A
:1011C0001A612A4B1A682949294B13400B60264B98
:1011D0001B6803F00803002B07D0234B1B6823F088
:1011E0000F03214A43F007031360204B00229A614A
:1011F0001E4B0022DA611D4B00221A621B4B1D4A56
:101200009A621A4B1C4ADA62184B1C4A1A63174B33
:1012100000225A63154B194A9A63144B0022DA6371
:10122000124B164A1A64114B00225A640F4B1B686A
:101230000E4A23F4802313600C4B00221A66104BD5
:101240001A68104B1340B3F1005F02D20E4B01221B
:101250001A600E4B43F2D2021A6000BFBD465DF821
:10126000047B704700ED00E000200052004402586B
:101270007FEDF6EA000202020000FF018002010198
:101280000010005C0000FFFF088100510040005288
:10129000DFF834D0FFF774FF0C480D490D4A0023E6
:1012A00002E0D458C4500433C4188C42F9D30A4A1B
:1012B0000A4C002301E013600432A242FBD312F077
:1012C00087FEFFF775F8704700000824000000242F
:1012D00094000024AC8D01089400002444370024BD
:1012E000FEE780B483B000AF786039607B68002B84
:1012F0000BD03B68DB68002B07D03B689B68002B5A
:1013000003D03B681B69002B02D14FF0FF3314E080
:101310003B681A687B689A603B685A687B68DA6049
:101320003B68DA687B685A613B689A687B681A6137
:101330003B681A697B689A61002318460C37BD46E2
:101340005DF8047B704780B586B000AF78600023FD
:10135000FB600023BB6000237B6100233B617B6853
:101360005B68002B7CD17B689B68002B02D07B687C
:101370009B6898477B6820221A6000237B611CE0F1
:101380007B685B6907F10802122178699847034678
:10139000002B03DA6FF004033B610BE0BB6803F042
:1013A0001F037A699A4205D17B687A691A60002323
:1013B0003B6105E07B6901337B617B691F2BDFD9D2
:1013C0007B681B681F2B02D96FF002033B613B69EE
:1013D000002B45D17B681B697A6810684FF4004286
:1013E000002198470346002B37DB7B685B697A68EE
:1013F000106807F10802002198470346002B28DBFC
:101400007B689B6998470346FB601CE07B689B698F
:10141000984703461A46FB68D31AB3F5FA7F0ED8ED
:101420007B685B697A68106807F1080200219847B9
:101430000346002B07DA6FF004033B6110E06FF006
:1014400001033B610CE0BB6803F40043002BDDD1DA
:1014500006E06FF004033B6102E06FF003033B61C1
:101460003B69002B12D17B689B6998470346FB6060
:1014700000BF7B689B69984703461A46FB68D31AEE
:10148000B3F5FA6FF5D97B6801225A603B691846BB
:101490001837BD4680BD80B584B000AF78600023AA
:1014A000FB607B685B697A68106807F10C020121B8
:1014B00098470346002B02DA6FF004036EE07B6866
:1014C0005B697A68106807F10C02012198470346AE
:1014D000002B02DA6FF0040360E0FB6803F0040302
:1014E000002B01D1012359E07B685B697A681068A1
:1014F00007F10C02002198470346002B02DA6FF037
:1015000004034BE0FB6803F48053002B1BD1FB6802
:1015100003F40053002B06D0FB6803F48073002B08
:1015200001D002233AE0FB6803F40053002B01D002
:10153000032333E0FB6803F48073002B01D0042302
:101540002CE005232AE07B685B697A68106807F164
:101550000C021F2198470346002B02DA6FF00403A8
:101560001CE0FB6803F48053002B01D1062315E037
:10157000FB6803F01C03182B01D102230EE0FB686B
:1015800003F01C03082B01D1032307E0FB6803F0E1
:101590001C03142B01D1042300E005231846103747
:1015A000BD4680BD80B582B000AF032001F0FEF8DB
:1015B00003F07EFD0246154B9B691B0A03F00F03E7
:1015C0001349CB5C03F01F0322FA03F37B600F4B3C
:1015D0009B6903F00F030E4AD35C03F01F037A6884
:1015E00022FA03F30B4A13600B4A7B681360002056
:1015F00000F014F80346002B01D0012302E0FFF7AE
:1016000011FC002318460837BD4680BD004402582F
:10161000607D0108040000240000002480B582B031
:1016200000AF7860154B1B78002B01D1012321E01E
:10163000134B1A68114B1B7819464FF47A73B3FB9E
:10164000F1F3B2FBF3F3184601F0D5F80346002B93
:1016500001D001230EE07B680F2B0AD800227968A5
:101660004FF0FF3001F0ADF8064A7B6813600023AD
:1016700000E0012318460837BD4680BD0C00002459
:10168000000000240800002480B400AF064B1B7843
:101690001A46064B1B681344044A136000BFBD463C
:1016A0005DF8047B704700BF0C0000241801002483
:1016B00080B400AF034B1B681846BD465DF8047B41
:1016C000704700BF1801002480B400AF034B1B68B3
:1016D0001B0C1846BD465DF8047B70470010005C8B
:1016E00080B483B000AF7860064B5B6823F460027F
:1016F00004497B6813434B6000BF0C37BD465DF85F
:10170000047B70470004005880B483B000AF786059
:101710003960074B5A687B68DB431A4004493B68D1
:1017200013434B6000BF0C37BD465DF8047B704728
:101730000004005880B483B000AF786039607B68E3
:101740009B6823F47C123B681A437B689A6000BF55
:101750000C37BD465DF8047B704780B483B000AFA2
:10176000786039607B689B6823F0E0723B681A43BD
:101770007B689A6000BF0C37BD465DF8047B7047FC
:1017800080B483B000AF78607B689B6803F0E0733F
:1017900018460C37BD465DF8047B704780B487B0AF
:1017A00000AFF860B9607A603B60FB6860331A464E
:1017B000BB689B0013447B617B691B6803F000429C
:1017C0007B6803F0F8413B680B431A437B691A605E
:1017D00000BF1C37BD465DF8047B704780B485B000
:1017E00000AFF860B9607A60FB681B6923F4F042CF
:1017F000BB6803F01F03796801FA03F31A43FB681F
:101800001A6100BF1437BD465DF8047B704780B491
:1018100087B000AFF860B9607A60FB6860331A4641
:10182000BB689B0013447B617B691B6823F000420B
:101830007B681A437B691A6000BF1C37BD465DF8A0
:10184000047B704780B487B000AFF860B9607A60FD
:10185000FB6830331A46BB681B0A9B0003F00C037D
:1018600013447B617B691A68BB6803F01F031F2167
:1018700001FA03F3DB431A407B689B0E03F01F0160
:10188000BB6803F01F0301FA03F31A437B691A6074
:1018900000BF1C37BD465DF8047B704780B487B03D
:1018A00000AFF860B9607A60FB6814331A46BB6811
:1018B0005B0E9B0003F0040313447B617B691A6891
:1018C000BB681B0D03F01F03072101FA03F3DB4381
:1018D0001A40BB681B0D03F01F03796801FA03F37C
:1018E0001A437B691A6000BF1C37BD465DF8047B54
:1018F0007047000080B485B000AFF860B9607A60CE
:10190000FB68D3F8C020BB68C3F31303DB431A4062
:101910007B6803F018030849D940BB680B40C3F348
:1019200013031A43FB68C3F8C02000BF1437BD4639
:101930005DF8047B704700BFFFFF0F0080B483B0E9
:1019400000AF78607B689A68044B13407A689360B4
:1019500000BF0C37BD465DF8047B7047C0FFFF5FDA
:1019600080B483B000AF78607B689B6803F000535D
:10197000B3F1005F01D1012300E0002318460C37CA
:10198000BD465DF8047B704780B483B000AF7860DB
:101990007B689A68054B134043F080527B689A60DD
:1019A00000BF0C37BD465DF8047B7047C0FFFF6F7A
:1019B00080B483B000AF78607B689B6803F080538D
:1019C000B3F1805F01D1012300E0002318460C37FA
:1019D000BD465DF8047B704780B483B000AF78608B
:1019E0007B689B6803F00103012B01D1012300E018
:1019F000002318460C37BD465DF8047B704780B461
:101A000083B000AF78607B689B6803F00403042B0D
:101A100001D1012300E0002318460C37BD465DF8D4
:101A2000047B704780B483B000AF78607B689B68AC
:101A300003F00803082B01D1012300E0002318461E
:101A40000C37BD465DF8047B7047000090B589B047
:101A500000AF78600023FB770023BB607B68002B1E
:101A600001D101238FE17B68DB68002B7B685B6D14
:101A7000002B09D17868FFF7EFF97B6800229A659F
:101A80007B68002283F850207B681B681846FFF7AC
:101A900067FF0346002B04D07B681B681846FFF7DE
:101AA0004DFF7B681B681846FFF782FF0346002B3B
:101AB00014D17B681B681846FFF766FF874B1B68CD
:101AC0009B09874AA2FB03239B090133BB6002E009
:101AD000BB68013BBB60BB68002BF9D17B681B680E
:101AE0001846FFF765FF0346002B0DD17B685B6D41
:101AF00043F010027B685A657B689B6D43F00102DE
:101B00007B689A650123FB777B681B681846FFF7A3
:101B100076FF78617B685B6D03F01003002B40F06B
:101B200029817B69002B40F025817B685B6D23F464
:101B3000817343F002027B685A657B681B68184614
:101B4000FFF74AFF0346002B36D17B681B68654AC6
:101B5000934204D07B681B68634A93420ED161486C
:101B6000FFF73AFF04466048FFF736FF034623437A
:101B7000002B0CBF01230023DBB208E05B48FFF71A
:101B80002BFF0346002B0CBF01230023DBB2002BED
:101B900012D07B681B68534A934204D07B681B6851
:101BA000514A934201D1524A00E0524A7B685B6835
:101BB00019461046FFF7BEFDFFF786FD034641F2CA
:101BC0000302934214D97B689B68102B10D17B6869
:101BD0005B7D5A037B681B6B1A437B689B681A43C7
:101BE0007B681B7F1B04134343F00C03BB610DE0B8
:101BF0007B685B7D5A037B681B6B1A437B689B6821
:101C00001A437B681B7F1B041343BB617B681B7FEC
:101C1000012B06D17B681B6A013B5B04BA69134345
:101C2000BB617B685B6A002B09D07B685B6A03F44D
:101C300078727B689B6A1343BA691343BB617B6804
:101C40001B68DA682C4B13407A681268B9690B4339
:101C5000D3607B681B681846FFF7D1FE38617B684C
:101C60001B681846FFF7DEFEF8603B69002B5FD16A
:101C7000FB68002B5CD17B681B7D9A037B68DB6A69
:101C80001343BB617B681B68DA681C4B13407A689E
:101C90001268B9690B43D3607B6893F83830012B25
:101CA00030D17B685B6A002B7B681B681A69144B18
:101CB00013407A68D26B013A11047A68126C1143AE
:101CC0007A68526C11437A68926C0A431A437B68B3
:101CD0001B6842F001021A611CE000BF00000024F2
:101CE000632D3E05002002400021024000600258A2
:101CF000002302400063025803C0F0FFFCBFFFFF57
:101D00001EF800FC7B681B681A697B681B6822F060
:101D100001021A617B681B681B6923F070417B68B4
:101D20005A6B7B681B680A431A61786800F080FB75
:101D30007B68DB68012B0CD17B681B681B6B23F075
:101D40000F017B689B695A1E7B681B680A431A63F4
:101D500007E07B681B681A6B7B681B6822F00F0228
:101D60001A637B685B6D23F0030343F001027B6819
:101D70005A6507E07B685B6D43F010027B685A652B
:101D80000123FB77FB7F18462437BD4690BD00BF7B
:101D900090B5A1B000AF78603960002387F87F303C
:101DA0000023BB603B68DB689D4A93427B6893F8E5
:101DB0005030012B01D1022321E37B68012283F8FB
:101DC00050207B681B681846FFF719FE0346002B5E
:101DD00040F006833B681B68C3F31303002B08D154
:101DE0003B681B689B0E03F01F03012202FA03F3FA
:101DF00016E03B681B687B667B6E93FAA3F33B6639
:101E00003B6EBB66BB6E002B01D1202303E0BB6E93
:101E1000B3FA83F3DBB203F01F03012202FA03F3E8
:101E20007A681268D1697A6812680B43D3617B685B
:101E300018683B6859683B681B681A46FFF702FD43
:101E40007B681B681846FFF7DAFDB8677B681B687C
:101E50001846FFF7E7FD7867BB6F002B40F0B380B3
:101E60007B6F002B40F0AF807B6818683B68196877
:101E70003B689B681A46FFF711FD6A4B1B6803F02D
:101E80007043B3F1805F0BD13B685A697B681B6874
:101E9000DB689B0803F007035B0002FA03F31DE015
:101EA0007B681B68DB6803F01003002B0BD13B68D9
:101EB0005A697B681B68DB689B0803F007035B00BB
:101EC00002FA03F30AE03B685A697B681B68DB6827
:101ED0009B0803F004035B0002FA03F33B673B68D3
:101EE0001B69042B27D07B6818683B6819693B681D
:101EF0001A683B6FFFF752FC7B6818683B681969EA
:101F00003B685B7E012B02D14FF0004300E00023D1
:101F10001A46FFF77CFC7B6818683B6819693B68C8
:101F20001B7E012B02D14FF4006300E000231A4610
:101F3000FFF754FC47E07B681B681B6E03F0F84218
:101F40003B681B689B069A4207D17B681B681A6E28
:101F50007B681B6822F000421A667B681B685B6E18
:101F600003F0F8423B681B689B069A4207D17B68E6
:101F70001B685A6E7B681B6822F000425A667B68B9
:101F80001B689B6E03F0F8423B681B689B069A42F5
:101F900007D17B681B689A6E7B681B6822F0004241
:101FA0009A667B681B68DB6E03F0F8423B681B682F
:101FB0009B069A4207D17B681B68DA6E7B681B68B8
:101FC00022F00042DA667B681B681846FFF704FDC2
:101FD0000346002B40F00D827B6818683B68196847
:101FE0003B68DB681A46FFF785FC3B68DB680C4AF8
:101FF000934240F033817B6818683B681B68C3F3E9
:102000001303002B10D13B681B689B0E013303F0B8
:102010001F03092B94BF01230023DBB21EE000BF86
:102020000000FF470010005C3B681B68BB65BB6D90
:1020300093FAA3F37B657B6DFB65FB6D002B01D1F0
:10204000202303E0FB6DB3FA83F3DBB2013303F02B
:102050001F03092B94BF01230023DBB2002B79D08F
:102060003B681B68C3F31303002B07D13B681B6855
:102070009B0E01339B0603F0F84215E03B681B689A
:10208000FB64FB6C93FAA3F3BB64BB6C3B653B6DD9
:10209000002B01D1202303E03B6DB3FA83F3DBB2C5
:1020A00001339B0603F0F8423B681B68C3F313033C
:1020B000002B09D13B681B689B0E013303F01F0303
:1020C000012101FA03F317E03B681B683B643B6C9A
:1020D00093FAA3F3FB63FB6B7B647B6C002B01D156
:1020E000202303E07B6CB3FA83F3DBB2013303F00C
:1020F0001F03012101FA03F342EA03013B681B6855
:10210000C3F31303002B0AD13B681B689B0E0133FA
:1021100003F01F0213465B0013441B0518E03B68E5
:102120001B687B637B6B93FAA3F33B633B6BBB63E3
:10213000BB6B002B01D1202303E0BB6BB3FA83F30D
:10214000DBB2013303F01F0213465B0013441B058F
:102150000B437EE03B681B68C3F31303002B07D1DE
:102160003B681B689B0E01339B0603F0F84215E0A9
:102170003B681B68BB62BB6A93FAA3F37B627B6A12
:10218000FB62FB6A002B01D1202303E0FB6AB3FA58
:1021900083F3DBB201339B0603F0F8423B681B6814
:1021A000C3F31303002B09D13B681B689B0E01335B
:1021B00003F01F03012101FA03F317E03B681B68DA
:1021C000FB61FB6993FAA3F3BB61BB693B623B6AAA
:1021D000002B01D1202303E03B6AB3FA83F3DBB287
:1021E000013303F01F03012101FA03F342EA030163
:1021F0003B681B68C3F31303002B0DD13B681B68BE
:102200009B0E013303F01F0213465B0013441E3B79
:102210001B0543F000731BE03B681B683B613B6997
:1022200093FAA3F3FB60FB687B617B69002B01D110
:10223000202303E07B69B3FA83F3DBB2013303F0BD
:102240001F0213465B0013441E3B1B0543F0007343
:102250000B433A6892681946FFF720FB3B681B68FE
:10226000002B80F2C6807B681B68674A934204D0CB
:102270007B681B68654A934201D1654B00E0654B62
:102280001846FFF77DFAF8667B681B685E4A934242
:1022900004D07B681B685D4A93420ED15A48FFF711
:1022A0009BFB04465948FFF797FB03462343002B4B
:1022B0000CBF01230023DBB208E05748FFF78CFB7B
:1022C0000346002B0CBF01230023DBB2002B7DD083
:1022D0003B681B68514A934230D1FB6E03F4000304
:1022E000002B2BD17B681B684B4A934240F08180C6
:1022F0007B681B68444A934204D07B681B68434A4E
:10230000934201D1424A00E0424AFB6E43F400038B
:1023100019461046FFF721FA414B1B689B09414AB9
:10232000A2FB03239B0901335B00BB6002E0BB6897
:10233000013BBB60BB68002BF9D15AE03B681B68CE
:10234000394A93421ED1FB6E03F08073002B19D1E2
:102350007B681B68304A93424BD17B681B682A4AD2
:10236000934204D07B681B68284A934201D1284AD3
:1023700000E0284AFB6E43F0807319461046FFF7D1
:10238000ECF936E03B681B68284A934231D1FB6E7A
:1023900003F48003002B2CD17B681B681E4A9342F8
:1023A00027D17B681B68184A934204D07B681B685E
:1023B000164A934201D1164A00E0164AFB6E43F4D6
:1023C000800319461046FFF7C8F912E07B685B6D81
:1023D00043F020027B685A65012387F87F3008E0CC
:1023E0007B685B6D43F020027B685A65012387F8A8
:1023F0007F307B68002283F8502097F87F301846A2
:102400008437BD4690BD00BF00200240002102403D
:10241000002302400063025800600258000084CB91
:1024200000000024632D3E05000052C70000B8CF15
:1024300080B584B000AF78607B681B687A4A9342AD
:1024400004D07B681B68794A934209D1784B9B681A
:1024500003F44033002B14BF01230023DBB208E058
:10246000744B9B6803F44033002B14BF01230023FB
:10247000DBB2002B1CD002F095FFF8607B685B6834
:10248000B3F5403F10D0B3F5403F73D8B3F5803F6C
:1024900002D0B3F5003F6DD17B685B681B0CFA6816
:1024A000B2FBF3F3FB6068E0FB689B08FB6064E051
:1024B0004FF400204FF0000104F0C4F9F8607B688D
:1024C0005B68B3F5301F51D0B3F5301F54D8B3F566
:1024D000201F47D0B3F5201F4ED8B3F5101F3DD0B5
:1024E000B3F5101F48D8B3F5001F33D0B3F5001F64
:1024F00042D8B3F5E01F29D0B3F5E01F3CD8B3F5BF
:10250000C01F1AD0B3F5C01F36D8B3F5A01F14D022
:10251000B3F5A01F30D8B3F5801F0ED0B3F5801FE0
:102520002AD8B3F5402F08D0B3F5402F24D8B3F5FF
:10253000802F02D0B3F5002F1ED17B685B689B0C07
:102540005B00FA68B2FBF3F3FB6016E0FB681B0963
:10255000FB6012E0FB685B09FB600EE0FB689B0917
:10256000FB600AE0FB68DB09FB6006E0FB681B0A16
:10257000FB6002E000BF00E000BFFFF7A5F80346E4
:1025800041F20302934215D8FB682B4A934208D9C3
:102590007B681B689A687B681B6842F480729A604B
:1025A0003EE07B681B689A687B681B6822F4807237
:1025B0009A6035E0FB685B08FB60FB681F4A93424A
:1025C00008D87B681B689A687B681B6822F4407295
:1025D0009A6025E0FB681A4A93420AD87B681B6818
:1025E0009B6823F440727B681B6842F480729A6097
:1025F00016E0FB68134A93420AD87B681B689B6805
:1026000023F440727B681B6842F400729A6007E012
:102610007B681B689A687B681B6842F440729A600A
:1026200000BF1037BD4680BD00200240002102409F
:102630000023024000630258002D3101105E5F004C
:1026400020BCBE0040787D0180B485B000AF7860CA
:102650007B6803F00703FB600B4BDB68BB60BA6869
:102660004FF6FF031340BB60FB681A02BB681A43B6
:10267000064B1343BB60044ABB68D36000BF1437EA
:10268000BD465DF8047B704700ED00E00000FA05F0
:1026900080B400AF044BDB681B0A03F00703184645
:1026A000BD465DF8047B704700ED00E080B483B068
:1026B00000AF03463960FB80B7F90630002B0ADB18
:1026C0003B68DAB20C49B7F906301201D2B20B44BA
:1026D00083F800230AE03B68DAB20849FB8803F07C
:1026E0000F03043B1201D2B20B441A7600BF0C3721
:1026F000BD465DF8047B704700E100E000ED00E0BE
:1027000080B489B000AFF860B9607A60FB6803F00C
:102710000703FB61FB69C3F10703042B28BF0423F4
:10272000BB61FB690433062B02D9FB69033B00E064
:1027300000237B614FF0FF32BB6902FA03F3DA43F7
:10274000BB681A407B699A404FF0FF317B6901FA00
:1027500003F3D9437B680B40134318462437BD4627
:102760005DF8047B7047000080B582B000AF7860F0
:102770007B68013BB3F1807F01D301230FE00A4A5C
:102780007B68013B53600F214FF0FF30FFF78EFF56
:10279000054B00229A60044B07221A60002318465A
:1027A0000837BD4680BD00BF10E000E080B582B0B4
:1027B00000AF78607868FFF747FF00BF0837BD4675
:1027C00080BD80B586B000AF0346B9607A60FB81FA
:1027D000FFF75EFF78617A68B9687869FFF790FF64
:1027E0000246B7F90E3011461846FFF75FFF00BFEB
:1027F0001837BD4680BD80B582B000AF786078687C
:10280000FFF7B2FF034618460837BD4680BD0000FB
:1028100080B400AFBFF35F8F00BF074B5B6A064A0F
:1028200023F480335362054B00225A6000BFBD463B
:102830005DF8047B704700BF00ED00E090ED00E024
:1028400080B483B000AF78600B4A7B6843F001032B
:1028500053600A4B5B6A094A43F480335362BFF307
:102860004F8F00BFBFF36F8F00BF00BF0C37BD4657
:102870005DF8047B704700BF90ED00E000ED00E0E4
:1028800080B483B000AF78607B685A781D4B9A6043
:102890007B681B78002B29D01A4A7B685B68D36061
:1028A0007B681B7B1A077B68DB7A1B061A437B68F5
:1028B0009B7ADB041A437B685B7B9B041A437B682F
:1028C0009B7B5B041A437B68DB7B1B041A437B689E
:1028D0005B7A1B021A437B681B7A5B0013437A689E
:1028E00012781146074A0B43136105E0054B00229D
:1028F000DA60044B00221A6100BF0C37BD465DF858
:10290000047B704790ED00E080B584B000AF786044
:102910007B68002B01D10123CFE07B68D3F88430A2
:10292000002B06D17B682322C3F88420786805F049
:1029300083FD644BD3F8F430624A43F00203C2F8DB
:10294000F430604BD3F8F43003F00203BB60BB6893
:102950007B681B7A002B03D10020FEF7C1FE03E049
:102960004FF40000FEF7BCFE574B5B687B681B68AA
:1029700003F580531B687A68126843F0010302F57F
:1029800080521360FEF794FEF86011E0FEF790FEAF
:102990000246FB68D31AB3F5FA7F09D97B68042293
:1029A000C3F888207B68E022C3F88420012384E0F8
:1029B0007B681B6803F580531B6803F00103002B41
:1029C000E4D1786800F094FD02F0ECFC03463F4A45
:1029D000A2FB03239A0C7B681B68013AC3F8DC2036
:1029E000786800F07FFF7B681B6803F58053D3F89D
:1029F000003123F4E0137A68126843F4002302F5EF
:102A00008052C2F800317B685B6903F00303002B3E
:102A100009D07B680122C3F888207B68E022C3F8D4
:102A20008420012349E07B681B6803F58053D3F8B9
:102A30000821274B13407A68526951007A6812685E
:102A40000B4302F58052C2F80831786800F0E7FFC6
:102A5000786801F02DF87B685B6805331B781A02F3
:102A60007B685B6804331B7819467B681B680A43E4
:102A7000C3F800237B685B6803331B781A067B6806
:102A80005B6802331B781B041A437B685B68013365
:102A90001B781B021A437B685B681B7819467B68AE
:102AA0001B680A43C3F804237B680022C3F888200C
:102AB0007B681022C3F88420002318461037BD46D7
:102AC00080BD00BF004402580004005883DE1B4351
:102AD0000180FFFF80B582B000AF78607B68D3F8DB
:102AE0008430102B53D17B682322C3F884207B6869
:102AF0000422DA66786800F0F6F97B681B681A68C9
:102B00007B681B6842F002021A607B681B681A68C7
:102B10007B681B6842F001021A607B681B68D3F86F
:102B2000002D7B681B6842F00102C3F8002D7B6812
:102B30001B6803F58053D3F804317A68126843F0B8
:102B4000010302F58052C2F804317B681B6803F56B
:102B50008053D3F808317A68126843F0010302F514
:102B60008052C2F808317B681B6803F58053D3F8A4
:102B700060317A68126843F4817302F58052C2F8BA
:102B800060317B682322C3F88420002300E0012306
:102B900018460837BD4680BD80B483B000AF78606A
:102BA0007B68D3F88430232B3FD17B682322C3F882
:102BB00084207B681B6803F58053D3F804317A685E
:102BC000126823F0010302F58052C2F804317B68D9
:102BD0001B6803F58053D3F808317A68126823F034
:102BE000010302F58052C2F808317B681B681A683D
:102BF0007B681B6822F001021A607B681B68D3F8AF
:102C0000002D7B681B6842F00102C3F8002D7B6831
:102C10001B681A687B681B6822F002021A607B68D6
:102C20001022C3F88420002300E0012318460C374B
:102C3000BD465DF8047B704780B586B000AFF86094
:102C4000B9607A60BB68002B09D1FB68D3F8883083
:102C500043F00102FB68C3F8882001237FE0FB6892
:102C6000D3F88430232B79D10022B968F86800F0BA
:102C70007DFF0346002B09D0FB68D3F8883043F072
:102C80000202FB68C3F88820012368E0BFF34F8F7E
:102C900000BFFB689A6AFB68063253F822307B61FA
:102CA000FB689B6A5A1CFB689A62FB689B6A032B51
:102CB00004D9FB689B6A1A1FFB689A62FB68996AD1
:102CC000FB681A68FB68063153F8213002F5805220
:102CD000C2F82031FEF7ECFC386139E0FB681B6874
:102CE00003F58053D3F8603103F48053002B12D0E6
:102CF000FB68D3F8883043F00802FB68C3F88820EB
:102D0000FB681B6803F58053D3F86021FB68C3F8A8
:102D10008C20012323E07B68B3F1FF3F18D0FEF73E
:102D2000C7FC02463B69D31A7A689A4202D37B6891
:102D3000002B0DD1FB68D3F8883043F00402FB6808
:102D4000C3F888207B694FF04052DA60012306E027
:102D50007B69DB68002BC1DB002300E00123184600
:102D60001837BD4680BD80B588B000AF7860396047
:102D700000237B610023FB733B68002B09D17B6838
:102D8000D3F8883043F001027B68C3F88820012320
:102D9000A5E07B68D3F88430232B01D001239EE08B
:102DA0007B68DB6DFB617B68FA69123253F8223075
:102DB000BB617B68DB6EC3F10403BB6067E0BB698A
:102DC000DB6803F08043002B07D0BB695A687B683F
:102DD0009A67BB691A687B685A67BB69DB6803F04E
:102DE0000053002B03D17B68DB6F002B3DD0BB6908
:102DF000DB6803F00053002B05D07B6800221A66C5
:102E00007B6800225A667B685B693B61BB69DB6853
:102E100003F08053002B0DD0BB69DB68C3F30E02B7
:102E20007B685B6ED31A3B61BB69DA687B681A67A3
:102E30000123FB737B6803F17C007B6803F1800155
:102E4000BB691B691A463B699BB205F02FFD7B6885
:102E50001B6E5A1C7B681A667B685A6E3B691A4463
:102E60007B685A66BB6900221A61FB690133FB610A
:102E7000FB69032B02D9FB69043BFB617B68FA69A0
:102E8000123253F82230BB617B6901337B61BB692D
:102E9000DB68002B06DB7A69BB689A4202D2FB7BB7
:102EA000002B8CD07B68DA6E7B691A447B68DA660B
:102EB0007B68DB6E002B02D0786800F014F87B682A
:102EC000FA69DA65FB7B012B08D17B68DA6F3B6816
:102ED0001A607B680022DA67002300E001231846AD
:102EE0002037BD4680BD80B588B000AF7860002334
:102EF000FB600123FB747B689B6EFB617B68FA6956
:102F0000123253F822307B617B68DB6EBB613BE0A1
:102F10007B691B69002B12D107F10C03184605F0E1
:102F200095FCFB68002B02D10023FB7407E0FB68D3
:102F30001A467B691A61FB681A467B691A60FB7C3A
:102F4000002B21D0BFF35F8F00BF7B689B6D002BF0
:102F500004D07B694FF04142DA6003E07B694FF0B7
:102F60000142DA60FB690133FB61FB69032B02D983
:102F7000FB69043BFB617B68FA69123253F822302B
:102F80007B61BB69013BBB61BB69002B02D0FB7C51
:102F9000002BBDD17B68DB6EBA699A420DD07B688D
:102FA0001B6803F580531A460023C2F828317B685A
:102FB000FA699A667B68BA69DA6600BF2037BD464F
:102FC00080BD80B586B000AFF860B9607A603B60C4
:102FD000FB681B68D3F8003203F00103002B01D01B
:102FE00001233EE0FB681B68D3F800327B617B69FC
:102FF00023F07872BB685B0513437B617B6923F424
:10300000F8127B681B0413437B617B6943F00C035C
:103010007B617B6943F001037B61FB681B687A6914
:10302000C3F80022FEF744FB386109E0FEF740FBDD
:1030300002463B69D31AB3F57A7F01D9012310E028
:10304000FB681B68D3F8003203F00103002BEDD1BD
:10305000FB681B68D3F804329BB21A463B681A60BF
:10306000002318461837BD4680BD000080B586B0E5
:1030700000AFF860B9607A603B60FB681B68D3F80A
:10308000003203F00103002B01D001233CE0FB6878
:103090001B68D3F800327B617B6923F07872BB68D0
:1030A0005B0513437B617B6923F4F8127B681B0487
:1030B00013437B617B6923F00C0343F004037B61C2
:1030C0007B6943F001037B613B689AB2104BC3F804
:1030D00004220F4A7B69C2F80032FEF7E9FA386130
:1030E00009E0FEF7E5FA02463B69D31AB3F57A7FA9
:1030F00001D9012308E0FB681B68D3F8003203F014
:103100000103002BEDD1002318461837BD4680BDC2
:103110000080024080B483B000AF786039603B68C3
:10312000002B01D10123C3E17B681B681B6803F0FE
:103130000C023B68DA627B681B681B6803F01003B3
:10314000002B14BF01230023DBB21A463B6883F82F
:1031500028207B681B681B6803F060023B685A628A
:103160007B681B681B6803F48073002B0CBF012372
:103170000023DBB21A463B6883F820207B681B687B
:103180001B6803F40073002B14BF01230023DBB280
:103190001A463B68DA777B681B681B6803F4806318
:1031A000002B0CBF01230023DBB21A463B689A7741
:1031B0007B681B681B6803F40063002B14BF0123AA
:1031C0000023DBB21A463B685A777B681B681B6892
:1031D00003F48053002B14BF01230023DBB21A46F3
:1031E0003B681A777B681B681B6803F400523B68D6
:1031F0009A617B681B681B6803F480423B685A61D4
:103200007B681B681B6803F48033002B14BF012309
:103210000023DBB21A463B689A747B681B681B6804
:1032200003F40033002B0CBF01230023DBB21A464A
:103230003B685A747B681B681B6803F40023002BEF
:103240000CBF01230023DBB21A463B681A747B686B
:103250001B681B6803F48013002B14BF0123002399
:10326000DBB21A463B68DA737B681B681B6803F4A1
:103270000013002B14BF01230023DBB21A463B6866
:103280009A737B681B681B6803F48003002B14BFD0
:1032900001230023DBB21A463B685A737B681B6824
:1032A0001B6803F40003002B14BF01230023DBB2CF
:1032B0001A463B681A737B681B681B6803F0E06260
:1032C0003B689A607B681B681B6803F00063002BF7
:1032D00014BF01230023DBB21A463B681A717B68D6
:1032E0001B681B6803F0E0423B681A607B681B6840
:1032F0005B68C3F30D023B685A637B681B685B68BD
:1033000003F48033002B0CBF01230023DBB21A46E9
:103310003B6883F832207B681B685B6803F40033EA
:10332000002B14BF01230023DBB21A463B6883F84D
:1033300031207B681B685B6803F48023002B14BF7B
:1033400001230023DBB21A463B6883F830207B68F8
:103350001B685B6803F08073002B14BF01230023FC
:10336000DBB21A463B6883F838207B681B685B68D1
:103370005B0E03F01F023B68DA637B681B68DB6847
:1033800003F48073002B14BF01230023DBB21A4621
:103390003B6883F840207B681B68DB6803F00F0202
:1033A0003B685A647B681B681B6F03F00203002BA9
:1033B00014BF01230023DBB21A463B6883F8542074
:1033C0007B681B681B6F03F08003002B0CBF01237D
:1033D0000023DBB21A463B6883F84C207B681B68ED
:1033E0001B6F03F070023B681A657B681B681B6FDC
:1033F0001B0C9AB23B689A647B681B68D3F89030C8
:1034000003F00103002B14BF01230023DBB21A4693
:103410003B6883F856207B681B68D3F8903003F034
:103420000203002B14BF01230023DBB21A463B68C2
:1034300083F855207B681B68D3F8003D03F07202C7
:103440003B689A657B681B68D3F8303D03F0230224
:103450003B68DA657B681B68D3F8303D03F00803EE
:10346000002B14BF01230023DBB21A463B6883F80C
:1034700062207B681B68D3F8303D03F01003002BFB
:1034800014BF01230023DBB21A463B6883F8612096
:103490007B681B68D3F8303D03F04003002B0CBF62
:1034A00001230023DBB21A463B6883F86020002327
:1034B00018460C37BD465DF8047B704780B582B076
:1034C00000AF786039603B68002B01D101230BE02D
:1034D0007B68D3F88430102B05D13968786800F008
:1034E0005FF8002300E0012318460837BD4680BD81
:1034F00080B584B000AF78607B681B68D3F8003279
:10350000FB60FB6823F47063FB6001F04BFFB86065
:10351000BB681E4A934208D9BB681D4A934204D82F
:10352000FB6843F40073FB6027E0BB68184A9342D2
:1035300008D9BB68174A934204D2FB6843F440732E
:10354000FB601AE0BB68134A934203D3BB68124A7C
:10355000934211D9BB68104A934208D9BB680F4AFD
:10356000934204D8FB6843F48073FB6005E0FB687A
:1035700043F48063FB6000E000BF7B681B68FA686F
:10358000C3F8002200BF1037BD4680BDFF2C3101BB
:10359000BF0E160200879303FFE0F5057FD1F00808
:1035A00080B485B000AF786039603B689A683B684A
:1035B0001B681A433B681B79DB061A433B681B7B7D
:1035C000DB051A433B685B7B9B051A433B689B7B8F
:1035D0005B051A433B68DB7B1B0513433A68127C8F
:1035E000002A02D14FF4002200E0002213433A687F
:1035F000527C002A02D14FF4003200E000221A432C
:103600003B689B7C1B041A433B685B691A433B681D
:103610009B691A433B681B7F1B031A433B685B7F14
:10362000DB0213433A68927F002A02D14FF4806292
:1036300000E000221A433B68DB7F5B0213433A68D9
:1036400092F82020002A02D14FF4807200E000227C
:103650001A433B685B6A1A433B6893F828301B01A6
:103660001A433B68DB6A1343FB607B681B681A687C
:10367000564B13407A681268F9680B4313603B6835
:10368000DB6B5A063B6893F838301B061A433B68DD
:1036900093F830309B041A433B6893F831305B0455
:1036A00013433A6892F83220002A02D14FF4803254
:1036B00000E000221A433B685B6B1343FB607B68AE
:1036C0001B685A68424B13407A681268F9680B43CA
:1036D00053603B6893F840301A023B685B6C1343BD
:1036E000FB607B681B68DA683A4B13407A681268A3
:1036F000F9680B43D3603B6893F854305A003B6839
:103700001B6D13433A6892F84C20002A01D18022A5
:1037100000E000221A433B689B6C1B041343FB60D0
:103720007B681B681A6F4FF60D7313407A68126836
:10373000F9680B4313673B6893F856301A463B68A9
:1037400093F855305B001343FB607B681B68D3F82C
:10375000903023F003017B681B68FA680A43C3F8C2
:1037600090207B681B68D3F8003D23F072013B6812
:103770009A6D7B681B680A43C3F8002D3B68DB6DBC
:103780003A6892F86020002A01D1402200E000222D
:103790001A433B6893F861301B011A433B6893F866
:1037A0006230DB001343FB607B681B68D3F8303D5D
:1037B00023F07B017B681B68FA680A43C3F8302D4D
:1037C00000BF1437BD465DF8047B7047838004005A
:1037D0000080F8C0F0FEFFFF80B485B000AF7860D5
:1037E00039607B681B6803F580531A68384B1340B7
:1037F0003A6811687A6812680B4302F580521360C8
:103800003B681B791A033B689B681A433B681B7B28
:10381000DB031343FB607B681B6803F580535A6826
:103820002C4B13407A681268F9680B4302F58052FA
:1038300053603B685B7B1A043B681B6A1343FB6065
:103840007B681B6803F58053D3F80021224B13409B
:103850007A681268F9680B4302F58052C2F80031A9
:103860003B681A693B681B7D1B011A433B685B7F01
:103870001B031343FB607B681B6803F58053D3F87D
:103880000421164B13407A681268F9680B4302F55D
:103890008052C2F804313B681B7FDA073B689B69A2
:1038A0001343FB607B681B6803F58053D3F8082142
:1038B0000B4B13407A681268F9680B4302F580528B
:1038C000C2F8083100BF1437BD465DF8047B70476D
:1038D000FD87FFFFFE2FFFFF00C0FEFFEFEFC0FFE1
:1038E000FFFFC07F80B5A4B000AF7860012387F8E8
:1038F0003B3000233B65002387F84930002387F8DD
:103900004B30012387F83030012387F85E300123E4
:1039100087F83A30002387F85430012387F88C3039
:103920004FF400537B64002387F864300023BB66A8
:10393000002387F88D30002387F88E304FF4C3635F
:103940003B66002387F8383000237B63012387F828
:103950003D30002387F83E30002387F848300023AD
:10396000FB6700237B670023BB65002387F86C306F
:10397000002387F88230012387F84A302023C7F8D4
:103980008830012387F84C30002387F85D304FF0F2
:103990004053FB624FF480433B64002387F8393087
:1039A0000223C7F88430002387F88030002387F88B
:1039B0008130002387F85C30012387F83C300023F6
:1039C0003B67012387F8783007F12C0319467868A4
:1039D000FFF7E6FD01233B7301233B610023BB603E
:1039E000002387F8243000237B7500233B754FF4B8
:1039F00000133B6200233B774FF40013BB610023AD
:103A000087F825304FF40673BB6207F108031946A7
:103A10007868FFF7E1FE00BF9037BD4680BD80B4F7
:103A200085B000AF78600023FB601DE07B68D9683B
:103A3000FA6813465B001344DB000B44BB60BB68B1
:103A400000221A60BB6800225A60BB6800229A609C
:103A5000BB680022DA60B9687B68FA68063243F80E
:103A60002210FB680133FB60FB68032BDED97B6807
:103A700000229A627B681B6803F580531A46032371
:103A8000C2F82C317B68DA687B681B6803F58053C9
:103A9000C3F814217B68DA687B681B6803F58053E0
:103AA000C3F8202100BF1437BD465DF8047B704782
:103AB00080B485B000AF78600023FB6023E07B68B2
:103AC0001969FA6813465B001344DB000B44BB60C2
:103AD000BB6800221A60BB6800225A60BB680022E3
:103AE0009A60BB680022DA60BB6800221A61BB687A
:103AF00000225A61B9687B68FA68123243F82210D2
:103B0000FB680133FB60FB68032BD8D97B6800227C
:103B1000DA657B6800221A667B6800229A667B68F9
:103B20000022DA667B6800229A657B681B6803F5D1
:103B300080531A460323C2F830317B681A697B68C8
:103B40001B6803F58053C3F81C217B681B6903F1D4
:103B500048027B681B6803F58053C3F8282100BF27
:103B60001437BD465DF8047B7047000080B48DB00B
:103B700000AFF860B9607A60FB6818337B617B69DD
:103B80001B69FB627B691B693B6100237B627B696C
:103B9000FA6A53F822303B62BB689B68FB610023E2
:103BA000BB613B6ADB6803F00043B3F1004F07D011
:103BB0007A69FB6A04339B0013445B68002B01D0D5
:103BC000022359E2BB681B6803F00403002B44D0B6
:103BD0003B6ADA68754B1340BA68526A1A433B6A0B
:103BE000DA603B6ADB6843F480323B6ADA60FB6888
:103BF0001B681A6EFB681B6842F480121A66BB6869
:103C00001B6803F00803002B27D03B6A9B689AB21D
:103C1000BB68DB6A1B041A433B6A9A603B6ADB6839
:103C200043F400323B6ADA603B6ADB6823F44022EB
:103C3000BB681B6B1A433B6ADA60FB681B685A6EF1
:103C4000FB681B6842F480125A66FB681B681A6D99
:103C5000FB681B6842F080621A65BB681B6803F052
:103C60001003002B0ED03B6A9A68514B1340BA6880
:103C700092691A433B6A9A603B6ADB6843F0806250
:103C80003B6ADA60BB681B6803F00403002B05D1B4
:103C9000BB681B6803F01003002B36D03B6ADB685F
:103CA00043F080423B6ADA60BFF35F8F00BF3B6A3C
:103CB000DB6843F000423B6ADA60FB6A0133FB6277
:103CC000FB6A032B02D9FB6A043BFB627B69FA6A3D
:103CD00053F822303B627B6A01337B623B6ADB68CC
:103CE00003F00043B3F1004F0FD17B693A6953F8F9
:103CF00022303B62BFF35F8F00BF3B6ADB6823F07B
:103D000000423B6ADA600223B6E17B6A01337B62E0
:103D1000FB691B681A463B6A1A603B6A9A68244B27
:103D20001340FA6952681A433B6A9A60FB699B68C0
:103D3000002B12D0FB699B68FB61FB691B681A466C
:103D40003B6A5A603B6A9A681A4B1340FA69526898
:103D500012041A433B6A9A6008E03B6A00225A60E8
:103D60003B6A9A68134B13403A6A9360BB681B68BE
:103D700003F01003002B21D03B6ADB6823F4F00230
:103D8000BB681B6ADB041A433B6ADA603B6ADA6889
:103D9000094B1340BA68D2691A433B6ADA603B6A3E
:103DA000DB6843F480223B6ADA602EE00000FFFF0C
:103DB00000C0FFFFFFFF00C00000FCFF3B6ADA68A5
:103DC0007B4B1340BA6852681A433B6ADA60BB689F
:103DD0001B6803F00103002B08D03B6ADB6823F467
:103DE0004032BB685B691A433B6ADA60BB681B6898
:103DF00003F02003002B08D03B6ADB6823F040620D
:103E0000BB681B691A433B6ADA60BB681B6803F036
:103E10000403002B08D03B6A9B6823F44042BB6834
:103E20009B6A1A433B6A9A603B6ADB6843F0005224
:103E30003B6ADA603B6ADB6823F080423B6ADA6007
:103E4000BFF35F8F00BF3B6ADB6843F000423B6A11
:103E5000DA60BB681B6803F00203002B00F0DA8015
:103E60003B6ADB6823F06072BB68DB681A433B6A1D
:103E7000DA60CFE03B6ADB6823F080523B6ADA60AD
:103E8000FB6A0133FB62FB6A032B02D9FB6A043B2A
:103E9000FB627B69FA6A53F822303B623B6ADB685B
:103EA00023F000523B6ADA603B6ADB6803F00043B0
:103EB000B3F1004F07D07A69FB6A04339B001344C7
:103EC0005B68002B29D03B69FB627B69FA6A53F877
:103ED00022303B620023BB6219E0BFF35F8F00BF5B
:103EE0003B6ADB6823F000423B6ADA60FB6A01331D
:103EF000FB62FB6A032B02D9FB6A043BFB627B6912
:103F0000FA6A53F822303B62BB6A0133BB62BA6A79
:103F10007B6A9A42E1D30223AEE07B6A01337B6283
:103F2000FB699B68FB61FB691B681A463B6A1A6068
:103F30003B6A9A681F4B1340FA6952681A433B6AFE
:103F40009A60FB699B68002B12D0FB699B68FB6140
:103F5000FB691B681A463B6A5A603B6A9A68164BB3
:103F60001340FA69526812041A433B6A9A6008E0E7
:103F70003B6A00225A603B6A9A680F4B13403A6AC8
:103F80009360BB681B6803F01003002B18D03B6ADA
:103F9000DA680A4B1340BA68D2691A433B6ADA609E
:103FA0003B6ADB6843F480223B6ADA6020E000BFB2
:103FB0000080FFFF00C0FFFFFFFF00C00000FCFF0C
:103FC0003B6ADA682F4B1340BA6852681A433B6A5F
:103FD000DA60BB681B6803F00103002B08D03B6A62
:103FE000DB6823F44032BB685B691A433B6ADA60E2
:103FF000BB690133BB61BFF35F8F00BF3B6ADB6806
:1040000043F000423B6ADA603B6ADB6823F080429F
:104010003B6ADA60FB699B68002B7FF42BAF7B68FF
:10402000002B06D03B6A9B6843F000423B6A9A60D3
:1040300005E03B6A9B6823F000423B6A9A603B6A5A
:10404000DB6843F080523B6ADA607B695A6A7969BF
:10405000FB6A04339B000B445A607B69FA6A1A615D
:1040600072B600BF7B699A6ABB6913445A1C7B69AC
:104070009A6262B600BF002318463437BD465DF829
:10408000047B70470080FFFF80B489B000AF786088
:1040900039600023FB61894B7B6194E13B681A68BE
:1040A0000121FB6901FA03F313403B613B69002BDB
:1040B00000F086813B685B6803F00303012B05D0A9
:1040C0003B685B6803F00303022B30D17B689B687D
:1040D000BB61FB695B00032202FA03F3DB43BA69AD
:1040E0001340BB613B68DA68FB695B0002FA03F3CB
:1040F000BA691343BB617B68BA699A607B685B6885
:10410000BB610122FB6902FA03F3DB43BA69134086
:10411000BB613B685B681B0903F00102FB6902FAA3
:1041200003F3BA691343BB617B68BA695A603B68A1
:104130005B6803F00303032B17D07B68DB68BB616C
:10414000FB695B00032202FA03F3DB43BA69134005
:10415000BB613B689A68FB695B0002FA03F3BA69CA
:104160001343BB617B68BA69DA603B685B6803F044
:104170000303022B23D1FB69DA087B68083253F86A
:104180002230BB61FB6903F007039B000F2202FA98
:1041900003F3DB43BA691340BB613B681A69FB69EF
:1041A00003F007039B0002FA03F3BA691343BB61F0
:1041B000FB69DA087B680832B96943F822107B682A
:1041C0001B68BB61FB695B00032202FA03F3DB435C
:1041D000BA691340BB613B685B6803F00302FB698B
:1041E0005B0002FA03F3BA691343BB617B68BA69E7
:1041F0001A603B685B6803F44033002B00F0E080FA
:104200002F4BD3F8F4302E4A43F00203C2F8F430B7
:104210002B4BD3F8F43003F00203FB60FB68294A10
:10422000FB699B08023352F82330BB61FB6903F042
:1042300003039B000F2202FA03F3DB43BA69134026
:10424000BB617B68204A934252D07B681F4A9342ED
:1042500031D07B681E4A93422BD07B681D4A934223
:1042600025D07B681C4A93421FD07B681B4A93422F
:1042700019D07B681A4A934213D07B68194A93423B
:104280000DD07B68184A934207D07B68174A934247
:1042900001D109232DE00A232BE0082329E007237D
:1042A00027E0062325E0052323E0042321E0032360
:1042B0001FE002231DE001231BE000BF8000005827
:1042C000004402580004005800000258000402583C
:1042D00000080258000C025800100258001402583E
:1042E00000180258001C02580020025800240258EE
:1042F0000023FA6902F0030292009340BA69134363
:10430000BB613849FB699B080233BA6941F8232035
:104310004FF0B0431B68BB613B69DB43BA69134094
:10432000BB613B685B6803F48013002B03D0BA6960
:104330003B691343BB614FF0B042BB6913604FF060
:10434000B0435B68BB613B69DB43BA691340BB6147
:104350003B685B6803F40013002B03D0BA693B6928
:104360001343BB614FF0B042BB6953607B695B682C
:10437000BB613B69DB43BA691340BB613B685B6867
:1043800003F40033002B03D0BA693B691343BB61CC
:104390007B69BA695A607B691B68BB613B69DB4317
:1043A000BA691340BB613B685B6803F48033002B40
:1043B00003D0BA693B691343BB617B69BA691A6070
:1043C000FB690133FB613B681A68FB6922FA03F35E
:1043D000002B7FF463AE00BF00BF2437BD465DF8FD
:1043E000047B70470004005880B483B000AF78604D
:1043F0000B467B8013467B707B78002B03D07A883A
:104400007B689A6103E07B881A047B689A6100BF2D
:104410000C37BD465DF8047B7047000080B584B062
:1044200000AF7860194BDB6803F00403042B0AD05B
:10443000164BDB6803F007037A689A4201D0012328
:104440001FE000231DE0114BDB6823F007020F493A
:104450007B681343CB60FDF72BF9F86009E0FDF7AB
:1044600027F90246FB68D31AB3F57A7F01D90123F5
:1044700007E0064B5B6803F40053B3F5005FEED131
:10448000002318461037BD4680BD00BF00480258C3
:1044900080B58CB000AF78607B68002B02D101231F
:1044A00000F048BC7B681B6803F00103002B00F0A0
:1044B0008880994B1B6903F03803FB62964B9B6A1B
:1044C000BB62FB6A102B07D0FB6A182B11D1BB6AA9
:1044D00003F00303022B0CD18F4B1B6803F4003352
:1044E000002B6DD07B685B68002B69D1012300F045
:1044F00021BC7B685B68B3F5803F06D1864B1B68A7
:10450000854A43F4803313602EE07B685B68002BA0
:104510000CD1814B1B68804A23F4803313607E4B9F
:104520001B687D4A23F4802313601DE07B685B6871
:10453000B3F5A02F0CD1784B1B68774A43F4802346
:104540001360754B1B68744A43F4803313600BE0AF
:10455000714B1B68704A23F4803313606E4B1B68E9
:104560006D4A23F4802313607B685B68002B13D0B3
:10457000FDF79EF8786208E0FDF79AF802467B6A3C
:10458000D31A642B01D90323D4E3634B1B6803F4D0
:104590000033002BF0D014E0FDF78AF8786208E0D1
:1045A000FDF786F802467B6AD31A642B01D90323F0
:1045B000C0E3594B1B6803F40033002BF0D100E03B
:1045C00000BF7B681B6803F00203002B00F0CA8069
:1045D000514B1B6903F038033B624F4B9B6AFB61F5
:1045E0003B6A002B07D03B6A182B56D1FB6903F0BE
:1045F0000303002B51D1484B1B6803F00403002B2D
:1046000005D07B68DB68002B01D1012392E3424B8C
:104610001B6823F019027B68DB683F4913430B607A
:10462000FDF746F8786208E0FDF742F802467B6A3B
:10463000D31A022B01D903237CE3374B1B6803F009
:104640000403002BF0D0FDF73FF8034641F20302CC
:10465000934217D87B681B69402B08D12E4B5B68AF
:1046600023F47C332C4A43F4003353607AE02A4B22
:104670005B6823F47C327B681B691B032649134368
:104680004B606FE0244B5B6823F0FE427B681B6944
:104690001B06214913434B6064E07B68DB68002BF9
:1046A00047D01D4B1B6823F019027B68DB681A4951
:1046B00013430B60FCF7FCFF786208E0FCF7F8FF9F
:1046C00002467B6AD31A022B01D9032332E3124B31
:1046D0001B6803F00403002BF0D0FCF7F5FF034642
:1046E00041F20302934219D87B681B69402B08D121
:1046F000094B5B6823F47C33074A43F4003353606F
:1047000030E0054B5B6823F47C327B681B691B033C
:10471000014913434B6025E0004402589A4B5B6803
:1047200023F0FE427B681B691B06974913434B60CD
:1047300018E0954B1B68944A23F001031360FCF7C3
:10474000B7FF786208E0FCF7B3FF02467B6AD31A32
:10475000022B01D90323EDE28B4B1B6803F004030A
:10476000002BF0D17B681B6803F01003002B00F0D6
:10477000A980854B1B6903F03803BB61824B9B6AA0
:104780007B61BB69082B07D0BB69182B3AD17B69C9
:1047900003F00303012B35D17B4B1B6803F48073BB
:1047A000002B05D07B68DB69802B01D00123C1E29F
:1047B000FCF78AFF034641F20302934217D87B6855
:1047C0001B6A202B08D1704B5B6823F0F8436E4ABC
:1047D00043F08043536075E06B4B5B6823F0F84215
:1047E0007B681B6A9B06684913434B606AE0664B13
:1047F000DB6823F07C527B681B6A1B06624913430B
:10480000CB605FE07B68DB69002B42D05E4B1B68AE
:104810005D4A43F080031360FCF74AFF786208E0CA
:10482000FCF746FF02467B6AD31A022B01D9032309
:1048300080E2554B1B6803F48073002BF0D0FCF72B
:1048400043FF034641F20302934217D87B681B6A79
:10485000202B08D14C4B5B6823F0F8434A4A43F0C5
:10486000804353602EE0484B5B6823F0F8427B683E
:104870001B6A9B06444913434B6023E0424BDB68B1
:1048800023F07C527B681B6A1B063F491343CB60B5
:1048900018E03D4B1B683C4A23F080031360FCF793
:1048A00007FF786208E0FCF703FF02467B6AD31A31
:1048B000022B01D903233DE2334B1B6803F48073C1
:1048C000002BF0D17B681B6803F00803002B36D067
:1048D0007B685B69002B19D02B4B5B6F2A4A43F036
:1048E00001035367FCF7E4FE786208E0FCF7E0FEA2
:1048F00002467B6AD31A022B01D903231AE2224B08
:104900005B6F03F00203002BF0D018E01E4B5B6FCF
:104910001D4A23F001035367FCF7CAFE786208E0E2
:10492000FCF7C6FE02467B6AD31A022B01D9032389
:1049300000E2154B5B6F03F00203002BF0D17B68A4
:104940001B6803F02003002B39D07B689B69002B88
:104950001CD00D4B1B680C4A43F480531360FCF7CA
:10496000A7FE786208E0FCF7A3FE02467B6AD31A32
:10497000022B01D90323DDE1034B1B6803F4005331
:10498000002BF0D01BE000BF004402589B4B1B687B
:104990009A4A23F480531360FCF78AFE786208E099
:1049A000FCF786FE02467B6AD31A022B01D9032349
:1049B000C0E1924B1B6803F40053002BF0D17B68DD
:1049C0001B6803F00403002B00F081808C4B1B68F4
:1049D0008B4A43F480731360FCF76AFE786208E048
:1049E000FCF766FE02467B6AD31A642B01D90323C7
:1049F000A0E1834B1B6803F48073002BF0D07B682D
:104A00009B68012B06D17D4B1B6F7C4A43F0010351
:104A100013672DE07B689B68002B0CD1774B1B6FD5
:104A2000764A23F001031367744B1B6F734A23F01C
:104A3000040313671CE07B689B68052B0CD16F4B4C
:104A40001B6F6E4A43F0040313676C4B1B6F6B4A7A
:104A500043F0010313670BE0684B1B6F674A23F0B9
:104A600001031367654B1B6F644A23F0040313674C
:104A70007B689B68002B15D0FCF71AFE78620AE071
:104A8000FCF716FE02467B6AD31A41F28832934243
:104A900001D903234EE1594B1B6F03F00203002B96
:104AA000EED014E0FCF704FE78620AE0FCF700FEAA
:104AB00002467B6AD31A41F28832934201D903231A
:104AC00038E14E4B1B6F03F00203002BEED17B68E5
:104AD0005B6A002B00F02D81484B1B6903F0380303
:104AE000182B00F0BD807B685B6A022B40F09E8033
:104AF000424B1B68414A23F080731360FCF7D8FDDA
:104B0000786208E0FCF7D4FD02467B6AD31A022BD8
:104B100001D903230EE1394B1B6803F00073002B0E
:104B2000F0D1364B9A6A374B13407A68916A7A68AB
:104B3000D26A12010A43314913438B627B681B6BB3
:104B4000013BC3F308027B685B6B013B5B029BB2DA
:104B50001A437B689B6B013B1B0403F4FE031A435F
:104B60007B68DB6B013B1B0603F0FE4323491343C9
:104B70000B63224BDB6A214A23F00103D3621F4BF4
:104B80005A6B214B13407A68926CD2001B49134335
:104B90004B631A4BDB6A23F00C027B681B6C1749D2
:104BA0001343CB62154BDB6A23F002027B685B6C1C
:104BB00012491343CB62114BDB6A104A43F4803332
:104BC000D3620E4BDB6A0D4A43F40033D3620B4BC6
:104BD000DB6A0A4A43F48023D362084BDB6A074A44
:104BE00043F00103D362054B1B68044A43F0807312
:104BF0001360FCF75DFD786211E000BF00440258CD
:104C0000004802580CFCFFFF0700FFFFFCF750FDB7
:104C100002467B6AD31A022B01D903238AE0474B51
:104C20001B6803F00073002BF0D082E0434B1B683D
:104C3000424A23F080731360FCF73AFD786208E083
:104C4000FCF736FD02467B6AD31A022B01D90323F7
:104C500070E03A4B1B6803F00073002BF0D168E062
:104C6000364B9B6A3B61354B1B6BFB607B685B6A19
:104C7000012B31D03B6903F003027B689B6A9A42A7
:104C80002AD13B691B0903F03F027B68DB6A9A4229
:104C900022D1FB68C3F308027B681B6B013B9A427D
:104CA0001AD1FB685B0A03F07F027B685B6B013BF8
:104CB0009A4211D1FB681B0C03F07F027B689B6B4F
:104CC000013B9A4208D1FB681B0E03F07F027B6810
:104CD000DB6B013B9A4201D001232BE0174B5B6B4E
:104CE000DB08C3F30C033B617B689B6C3A699A4217
:104CF0001FD0124BDB6A114A23F00103D362FCF789
:104D0000D7FC786200BFFCF7D3FC02467B6A934273
:104D1000F9D00A4B5A6B0A4B13407A68926CD20056
:104D2000064913434B63054BDB6A044A43F0010316
:104D3000D362002318463037BD4680BD0044025878
:104D40000700FFFF80B586B000AF786039607B68F0
:104D5000002B01D101239CE18A4B1B6803F00F0358
:104D60003A689A4210D9874B1B6823F00F02854995
:104D70003B6813430B60834B1B6803F00F033A68D7
:104D80009A4201D0012384E17B681B6803F004038D
:104D9000002B10D07B681A697B4B9B6903F0700372
:104DA0009A4208D9784B9B6923F070027B681B6993
:104DB000754913438B617B681B6803F00803002B64
:104DC00010D07B685A69704BDB6903F070039A421C
:104DD00008D96D4BDB6923F070027B685B696A4917
:104DE0001343CB617B681B6803F01003002B10D0CA
:104DF0007B689A69644BDB6903F4E0639A4208D9E3
:104E0000614BDB6923F4E0627B689B695E49134375
:104E1000CB617B681B6803F02003002B10D07B68FC
:104E2000DA69594B1B6A03F070039A4208D9564B52
:104E30001B6A23F070027B68DB69534913430B62E2
:104E40007B681B6803F00203002B10D07B68DA68D4
:104E50004D4B9B6903F00F039A4208D94A4B9B695B
:104E600023F00F027B68DB68474913438B617B6843
:104E70001B6803F00103002B55D0434B9B6923F4BF
:104E800070627B689B68404913438B617B685B68F9
:104E9000022B07D13C4B1B6803F40033002B21D1BC
:104EA0000123F6E07B685B68032B07D1364B1B6858
:104EB00003F00073002B15D10123EAE07B685B68E7
:104EC000012B07D1304B1B6803F48073002B09D1F1
:104ED0000123DEE02C4B1B6803F00403002B01D1FF
:104EE0000123D6E0284B1B6923F007027B685B682F
:104EF000254913430B61FCF7DBFB78610AE0FCF703
:104F0000D7FB02467B69D31A41F28832934201D91A
:104F10000323BEE01C4B1B6903F038027B685B680F
:104F2000DB009A42EBD17B681B6803F00203002B85
:104F300010D07B68DA68144B9B6903F00F039A4228
:104F400008D2114B9B6923F00F027B68DB680E4986
:104F500013438B610B4B1B6803F00F033A689A42B3
:104F600014D2084B1B6823F00F0206493B68134319
:104F70000B60044B1B6803F00F033A689A4205D09C
:104F8000012386E000200052004402587B681B6821
:104F900003F00403002B10D07B681A693F4B9B6918
:104FA00003F070039A4208D23C4B9B6923F07002D5
:104FB0007B681B69394913438B617B681B6803F06D
:104FC0000803002B10D07B685A69344BDB6903F06F
:104FD00070039A4208D2314BDB6923F070027B6880
:104FE0005B692E491343CB617B681B6803F0100398
:104FF000002B10D07B689A69284BDB6903F4E063CF
:105000009A4208D2254BDB6923F4E0627B689B69F6
:1050100022491343CB617B681B6803F02003002BFC
:1050200010D07B68DA691D4B1B6A03F070039A424B
:1050300008D21A4B1B6A23F070027B68DB691749A0
:1050400013430B6200F034F80246144B9B691B0AB1
:1050500003F00F031249CB5C03F01F0322FA03F3A2
:105060003B610E4B9B6903F00F030D4AD35C03F0C9
:105070001F033A6922FA03F30A4A13600A4A3B699A
:1050800013600A4B1B681846FCF7C8FA0346FB730B
:10509000FB7B18461837BD4680BD00BF0044025850
:1050A000607D0108040000240000002408000024A2
:1050B00080B489B000AFB34B1B6903F03803182BE1
:1050C00000F2558101A252F823F000BF31510008CF
:1050D0006F5300086F5300086F5300086F530008A8
:1050E0006F5300086F5300086F53000857510008B2
:1050F0006F5300086F5300086F5300086F53000888
:105100006F5300086F5300086F5300085D5100088B
:105110006F5300086F5300086F5300086F53000867
:105120006F5300086F5300086F5300086351000865
:10513000944B1B6803F02003002B09D0914B1B6894
:10514000DB0803F00303904A22FA03F3BB6111E189
:105150008D4BBB610EE18D4BBB610BE18C4BBB6199
:1051600008E1884B9B6A03F003037B61854B9B6AD4
:105170001B0903F03F033B61824BDB6A03F0010331
:10518000FB60804B5B6BDB08C3F30C03FA6802FB2C
:1051900003F307EE903AF8EE677AC7ED027A3B69BF
:1051A000002B00F0E1807B69022B00F083807B699B
:1051B000022B00F2A1807B69002B03D07B69012BBD
:1051C00056D099E06F4B1B6803F02003002B2DD0C5
:1051D0006C4B1B68DB0803F003036B4A22FA03F3F2
:1051E0007B607B6807EE903AF8EE676A3B6907EEF2
:1051F000903AF8EE677A86EEA77A624B1B6BC3F3A0
:10520000080307EE903AF8EE676A97ED026ADFED61
:10521000615AC6EE257A76EEA77AF7EE006A77EE47
:10522000A67A67EE277AC7ED077A87E03B6907EE33
:10523000903AF8EE677ADFED586A86EEA77A514B1E
:105240001B6BC3F3080307EE903AF8EE676A97ED1D
:10525000026ADFED505AC6EE257A76EEA77AF7EEAF
:10526000006A77EEA67A67EE277AC7ED077A65E0DF
:105270003B6907EE903AF8EE677ADFED486A86EE12
:10528000A77A404B1B6BC3F3080307EE903AF8EE86
:10529000676A97ED026ADFED3F5AC6EE257A76EE31
:1052A000A77AF7EE006A77EEA67A67EE277AC7ED5F
:1052B000077A43E03B6907EE903AF8EE677ADFED54
:1052C000386A86EEA77A2F4B1B6BC3F3080307EEF1
:1052D000903AF8EE676A97ED026ADFED2E5AC6EE55
:1052E000257A76EEA77AF7EE006A77EEA67A67EE71
:1052F000277AC7ED077A21E03B6907EE903AF8EE8E
:10530000677ADFED266A86EEA77A1E4B1B6BC3F326
:10531000080307EE903AF8EE676A97ED026ADFED50
:105320001D5AC6EE257A76EEA77AF7EE006A77EE7A
:10533000A67A67EE277AC7ED077A00BF114B1B6B81
:105340005B0A03F07F0301333B603B6807EE903A52
:10535000B8EE677AD7ED076AC6EE877AFCEEE77A91
:1053600017EE903ABB6105E00023BB6102E0074BFA
:10537000BB6100BFBB6918462437BD465DF8047B9E
:10538000704700BF004402580090D00300093D0060
:1053900040787D01000000460024744C0024744ACB
:1053A00020BCBE4B80B582B000AFFFF781FE024645
:1053B000104B9B691B0A03F00F030F49CB5C03F0F2
:1053C0001F0322FA03F37B600A4B9B6903F00F0370
:1053D000094AD35C03F01F037A6822FA03F3074AF1
:1053E0001360074A7B681360044B1B681846083734
:1053F000BD4680BD00440258607D010804000024C1
:105400000000002480B500AFFFF7CCFF0246064B3A
:10541000DB691B0903F007030449CB5C03F01F039E
:1054200022FA03F3184680BD00440258607D01084B
:105430002DE9B04FCAB000AFC7F81401002387F8B8
:105440002731002387F82631D7F81431D3E9002318
:1054500002F00064002554EA050349D0D7F814315E
:105460009B6EB3F5401F2FD0B3F5401F28D8B3F57E
:10547000001F1AD0B3F5001F22D8002B03D0B3F5BC
:10548000801F07D01CE0B84BDB6AB74A43F40033F7
:10549000D3621AE0D7F8143108330221184602F01B
:1054A00061FB034687F827310FE0D7F81431283322
:1054B0000221184602F008FC034687F8273104E071
:1054C000012387F8273100E000BF97F82731002B30
:1054D0000AD1A54B1B6D23F44011D7F814319B6EF4
:1054E000A14A0B43136503E097F8273187F826316B
:1054F000D7F81431D3E9002302F480784FF0000983
:1055000058EA090347D0D7F814319B6D042B2AD8E9
:1055100001A252F823F000BF2D5500083B550008AA
:10552000515500086F5500086F5500088E4BDB6A17
:105530008D4A43F40033D3621AE0D7F814310833AC
:105540000021184602F00EFB034687F827310FE0D2
:10555000D7F8143128330021184602F0B5FB034672
:1055600087F8273104E0012387F8273100E000BFE6
:1055700097F82731002B0AD17B4B1B6D23F00701D5
:10558000D7F814319B6D784A0B43136503E097F805
:10559000273187F82631D7F81431D3E9002302F4F4
:1055A000007A4FF0000B5AEA0B034CD0D7F81431B5
:1055B000DB6DB3F5807F30D0B3F5807F29D8C02B69
:1055C0002DD0C02B25D8802B18D0802B21D8002B94
:1055D00002D0402B07D01CE0634BDB6A624A43F4E5
:1055E0000033D3621CE0D7F8143108330021184689
:1055F00002F0B8FA034687F8273111E0D7F81431E2
:1056000028330021184602F05FFB034687F8273154
:1056100006E0012387F8273102E000BF00E000BF69
:1056200097F82731002B0AD14F4B1B6D23F4E07103
:10563000D7F81431DB6D4C4A0B43136503E097F840
:10564000273187F82631D7F81431D3E9002302F443
:105650008063C7F808310023C7F80C31D7E942123C
:105660000B46134353D0D7F81431D3F8A830B3F511
:10567000000F35D0B3F5000F2ED8B3F5C00F31D0E1
:10568000B3F5C00F28D8B3F5800F1AD0B3F5800F4B
:1056900022D8002B03D0B3F5001F07D01CE0324BFB
:1056A000DB6A314A43F40033D3621CE0D7F814318B
:1056B00008330021184602F055FA034687F82731CF
:1056C00011E0D7F8143128330021184602F0FCFA13
:1056D000034687F8273106E0012387F8273102E0E7
:1056E00000BF00E000BF97F82731002B0BD11E4B05
:1056F0009B6D23F46001D7F81431D3F8A8301A4A0F
:105700000B43936503E097F8273187F82631D7F8E4
:105710001431D3E9002302F40063C7F800310023F9
:10572000C7F80431D7E940120B46134356D0D7F8D7
:105730001431D3F8AC30B3F1806F38D0B3F1806F4F
:1057400031D8B3F1407F34D0B3F1407F2BD8B3F1DF
:10575000007F1DD0B3F1007F25D8002B06D0B3F118
:10576000807F0AD01FE000BF00440258A24BDB6AD2
:10577000A14A43F40033D3621CE0D7F81431083354
:105780000021184602F0EEF9034687F8273111E0B0
:10579000D7F8143128330021184602F095FA034651
:1057A00087F8273106E0012387F8273102E000BFA0
:1057B00000E000BF97F82731002B0BD18E4B9B6D7B
:1057C00023F0E061D7F81431D3F8AC308A4A0B43A8
:1057D000936503E097F8273187F82631D7F814311D
:1057E000D3E9002302F00073C7F8F8300023C7F8AC
:1057F000FC30D7E93E120B4613433AD0D7F81431A8
:10580000DB6C302B1FD0302B19D8202B0CD0202B49
:1058100015D8002B19D0102B11D1774BDB6A764AA3
:1058200043F40033D36211E0D7F814310833022176
:10583000184602F097F9034687F8273106E001235E
:1058400087F8273102E000BF00E000BF97F827315A
:10585000002B0AD1684BDB6C23F03001D7F81431F0
:10586000DB6C654A0B43D36403E097F8273187F874
:105870002631D7F81431D3E9002302F48053C7F856
:10588000F0300023C7F8F430D7E93C120B4613433D
:1058900051D0D7F814311B6EB3F5804F35D0B3F526
:1058A000804F2ED8B3F5405F31D0B3F5405F28D894
:1058B000B3F5005F1AD0B3F5005F22D8002B03D0F8
:1058C000B3F5805F07D01CE04B4BDB6A4A4A43F4D8
:1058D0000033D3621CE0D7F8143108330021184696
:1058E00002F040F9034687F8273111E0D7F8143168
:1058F00028330021184602F0E7F9034687F82731DC
:1059000006E0012387F8273102E000BF00E000BF76
:1059100097F82731002B0AD1374B1B6D23F4E04158
:10592000D7F814311B6E344A0B43136503E097F824
:10593000273187F82631D7F81431D3E9002302F450
:105940000053C7F8E8300023C7F8EC30D7E93A1223
:105950000B46134356D0D7F814315B6EB3F5A02F26
:1059600033D0B3F5A02F2CD8B3F5802F2FD0B3F5BB
:10597000802F26D8B3F5403F2BD0B3F5403F20D839
:10598000B3F5003F12D0B3F5003F1AD8002B22D058
:10599000B3F5803F15D1D7F81431083301211846EB
:1059A00002F0E0F8034687F8273115E0D7F8143104
:1059B00028330121184602F087F9034687F827317A
:1059C0000AE0012387F8273106E000BF04E000BFAA
:1059D00002E000BF00E000BF97F82731002B0DD197
:1059E000054B1B6D23F4E021D7F814315B6E024A9E
:1059F0000B43136506E000BF0044025897F82731B7
:105A000087F82631D7F81431D3E9002302F4804314
:105A1000C7F8E0300023C7F8E430D7E938120B4666
:105A2000134355D0D7F81431D3F8B030B3F1A04FA9
:105A300033D0B3F1A04F2CD8B3F1804F2FD0B3F1B6
:105A4000804F26D8B3F1405F2BD0B3F1405F20D810
:105A5000B3F1005F12D0B3F1005F1AD8002B22D04F
:105A6000B3F1805F15D1D7F81431083301211846FE
:105A700002F078F8034687F8273115E0D7F814319B
:105A800028330121184602F01FF9034687F8273111
:105A90000AE0012387F8273106E000BF04E000BFD9
:105AA00002E000BF00E000BF97F82731002B0BD1C8
:105AB000A34B9B6D23F0E041D7F81431D3F8B030FD
:105AC0009F4A0B43936503E097F8273187F8263107
:105AD000D7F81431D3E9002302F40043C7F8D830D3
